{
  "_format": "hh-sol-artifact-1",
  "contractName": "CarbonMarketplace",
  "sourceName": "contracts/CarbonMarketplace.sol",
  "abi": [
    {
      "inputs": [
        {
          "internalType": "address",
          "name": "_carbonToken",
          "type": "address"
        }
      ],
      "stateMutability": "nonpayable",
      "type": "constructor"
    },
    {
      "anonymous": false,
      "inputs": [
        {
          "indexed": false,
          "internalType": "uint256",
          "name": "listingId",
          "type": "uint256"
        },
        {
          "indexed": false,
          "internalType": "address",
          "name": "buyer",
          "type": "address"
        },
        {
          "indexed": false,
          "internalType": "uint256",
          "name": "amount",
          "type": "uint256"
        }
      ],
      "name": "Bought",
      "type": "event"
    },
    {
      "anonymous": false,
      "inputs": [
        {
          "indexed": false,
          "internalType": "uint256",
          "name": "listingId",
          "type": "uint256"
        },
        {
          "indexed": false,
          "internalType": "address",
          "name": "seller",
          "type": "address"
        },
        {
          "indexed": false,
          "internalType": "uint256",
          "name": "amount",
          "type": "uint256"
        },
        {
          "indexed": false,
          "internalType": "uint256",
          "name": "pricePerToken",
          "type": "uint256"
        }
      ],
      "name": "Listed",
      "type": "event"
    },
    {
      "inputs": [],
      "name": "admin",
      "outputs": [
        {
          "internalType": "address",
          "name": "",
          "type": "address"
        }
      ],
      "stateMutability": "view",
      "type": "function"
    },
    {
      "inputs": [
        {
          "internalType": "uint256",
          "name": "listingId",
          "type": "uint256"
        }
      ],
      "name": "buyTokens",
      "outputs": [],
      "stateMutability": "payable",
      "type": "function"
    },
    {
      "inputs": [],
      "name": "carbonToken",
      "outputs": [
        {
          "internalType": "contract CarbonCreditToken",
          "name": "",
          "type": "address"
        }
      ],
      "stateMutability": "view",
      "type": "function"
    },
    {
      "inputs": [
        {
          "internalType": "uint256",
          "name": "amount",
          "type": "uint256"
        },
        {
          "internalType": "uint256",
          "name": "pricePerToken",
          "type": "uint256"
        }
      ],
      "name": "listTokens",
      "outputs": [],
      "stateMutability": "nonpayable",
      "type": "function"
    },
    {
      "inputs": [
        {
          "internalType": "uint256",
          "name": "",
          "type": "uint256"
        }
      ],
      "name": "listings",
      "outputs": [
        {
          "internalType": "uint256",
          "name": "amount",
          "type": "uint256"
        },
        {
          "internalType": "uint256",
          "name": "pricePerToken",
          "type": "uint256"
        },
        {
          "internalType": "address",
          "name": "seller",
          "type": "address"
        }
      ],
      "stateMutability": "view",
      "type": "function"
    },
    {
      "inputs": [],
      "name": "nextListingId",
      "outputs": [
        {
          "internalType": "uint256",
          "name": "",
          "type": "uint256"
        }
      ],
      "stateMutability": "view",
      "type": "function"
    }
  ],
  "bytecode": "0x608060405234801561001057600080fd5b50604051610ca2380380610ca28339818101604052810190610032919061011c565b806000806101000a81548173ffffffffffffffffffffffffffffffffffffffff021916908373ffffffffffffffffffffffffffffffffffffffff16021790555033600160006101000a81548173ffffffffffffffffffffffffffffffffffffffff021916908373ffffffffffffffffffffffffffffffffffffffff16021790555050610149565b600080fd5b600073ffffffffffffffffffffffffffffffffffffffff82169050919050565b60006100e9826100be565b9050919050565b6100f9816100de565b811461010457600080fd5b50565b600081519050610116816100f0565b92915050565b600060208284031215610132576101316100b9565b5b600061014084828501610107565b91505092915050565b610b4a806101586000396000f3fe6080604052600436106100555760003560e01c80633610724e1461005a57806382a71ef214610076578063aaccf1ec146100a1578063de74e57b146100cc578063e30e5ae91461010b578063f851a44014610134575b600080fd5b610074600480360381019061006f9190610674565b61015f565b005b34801561008257600080fd5b5061008b6103c4565b6040516100989190610720565b60405180910390f35b3480156100ad57600080fd5b506100b66103e8565b6040516100c3919061074a565b60405180910390f35b3480156100d857600080fd5b506100f360048036038101906100ee9190610674565b6103ee565b60405161010293929190610786565b60405180910390f35b34801561011757600080fd5b50610132600480360381019061012d91906107bd565b610438565b005b34801561014057600080fd5b50610149610613565b60405161015691906107fd565b60405180910390f35b60006002600083815260200190815260200160002060405180606001604052908160008201548152602001600182015481526020016002820160009054906101000a900473ffffffffffffffffffffffffffffffffffffffff1673ffffffffffffffffffffffffffffffffffffffff1673ffffffffffffffffffffffffffffffffffffffff16815250509050806020015181600001516101ff9190610847565b3414610240576040517f08c379a0000000000000000000000000000000000000000000000000000000008152600401610237906108e6565b60405180910390fd5b60008054906101000a900473ffffffffffffffffffffffffffffffffffffffff1673ffffffffffffffffffffffffffffffffffffffff166323b872dd82604001513384600001516040518463ffffffff1660e01b81526004016102a593929190610906565b6020604051808303816000875af11580156102c4573d6000803e3d6000fd5b505050506040513d601f19601f820116820180604052508101906102e89190610975565b50806040015173ffffffffffffffffffffffffffffffffffffffff166108fc349081150290604051600060405180830381858888f19350505050158015610333573d6000803e3d6000fd5b506002600083815260200190815260200160002060008082016000905560018201600090556002820160006101000a81549073ffffffffffffffffffffffffffffffffffffffff021916905550507fd2728f908c7e0feb83c6278798370fcb86b62f236c9dbf1a3f541096c2159040823383600001516040516103b8939291906109a2565b60405180910390a15050565b60008054906101000a900473ffffffffffffffffffffffffffffffffffffffff1681565b60035481565b60026020528060005260406000206000915090508060000154908060010154908060020160009054906101000a900473ffffffffffffffffffffffffffffffffffffffff16905083565b8160008054906101000a900473ffffffffffffffffffffffffffffffffffffffff1673ffffffffffffffffffffffffffffffffffffffff166370a08231336040518263ffffffff1660e01b815260040161049291906107fd565b602060405180830381865afa1580156104af573d6000803e3d6000fd5b505050506040513d601f19601f820116820180604052508101906104d391906109ee565b1015610514576040517f08c379a000000000000000000000000000000000000000000000000000000000815260040161050b90610a67565b60405180910390fd5b60405180606001604052808381526020018281526020013373ffffffffffffffffffffffffffffffffffffffff16815250600260006003548152602001908152602001600020600082015181600001556020820151816001015560408201518160020160006101000a81548173ffffffffffffffffffffffffffffffffffffffff021916908373ffffffffffffffffffffffffffffffffffffffff1602179055509050507f98868c46d49b200d82c273c9f28d73265826ca6567690262736450563dfff64c6003543384846040516105ef9493929190610a87565b60405180910390a16003600081548092919061060a90610acc565b91905055505050565b600160009054906101000a900473ffffffffffffffffffffffffffffffffffffffff1681565b600080fd5b6000819050919050565b6106518161063e565b811461065c57600080fd5b50565b60008135905061066e81610648565b92915050565b60006020828403121561068a57610689610639565b5b60006106988482850161065f565b91505092915050565b600073ffffffffffffffffffffffffffffffffffffffff82169050919050565b6000819050919050565b60006106e66106e16106dc846106a1565b6106c1565b6106a1565b9050919050565b60006106f8826106cb565b9050919050565b600061070a826106ed565b9050919050565b61071a816106ff565b82525050565b60006020820190506107356000830184610711565b92915050565b6107448161063e565b82525050565b600060208201905061075f600083018461073b565b92915050565b6000610770826106a1565b9050919050565b61078081610765565b82525050565b600060608201905061079b600083018661073b565b6107a8602083018561073b565b6107b56040830184610777565b949350505050565b600080604083850312156107d4576107d3610639565b5b60006107e28582860161065f565b92505060206107f38582860161065f565b9150509250929050565b60006020820190506108126000830184610777565b92915050565b7f4e487b7100000000000000000000000000000000000000000000000000000000600052601160045260246000fd5b60006108528261063e565b915061085d8361063e565b925082820261086b8161063e565b9150828204841483151761088257610881610818565b5b5092915050565b600082825260208201905092915050565b7f496e636f72726563742045544820616d6f756e742073656e7400000000000000600082015250565b60006108d0601983610889565b91506108db8261089a565b602082019050919050565b600060208201905081810360008301526108ff816108c3565b9050919050565b600060608201905061091b6000830186610777565b6109286020830185610777565b610935604083018461073b565b949350505050565b60008115159050919050565b6109528161093d565b811461095d57600080fd5b50565b60008151905061096f81610949565b92915050565b60006020828403121561098b5761098a610639565b5b600061099984828501610960565b91505092915050565b60006060820190506109b7600083018661073b565b6109c46020830185610777565b6109d1604083018461073b565b949350505050565b6000815190506109e881610648565b92915050565b600060208284031215610a0457610a03610639565b5b6000610a12848285016109d9565b91505092915050565b7f496e73756666696369656e742062616c616e636520746f206c69737400000000600082015250565b6000610a51601c83610889565b9150610a5c82610a1b565b602082019050919050565b60006020820190508181036000830152610a8081610a44565b9050919050565b6000608082019050610a9c600083018761073b565b610aa96020830186610777565b610ab6604083018561073b565b610ac3606083018461073b565b95945050505050565b6000610ad78261063e565b91507fffffffffffffffffffffffffffffffffffffffffffffffffffffffffffffffff8203610b0957610b08610818565b5b60018201905091905056fea2646970667358221220df00163d82847499ebef8b5559bdd1b83b1e6dfb3240b4840f1d77af95c614eb64736f6c634300081b0033",
  "linkReferences": {},
  "deployedLinkReferences": {}
}